{
  "_format": "hh-sol-artifact-1",
  "contractName": "PaxeerEcosystemConnector",
  "sourceName": "contracts/PaxeerEcosystemConnector.sol",
  "abi": [
    {
      "inputs": [
        {
          "internalType": "address",
          "name": "_walletManager",
          "type": "address"
        },
        {
          "internalType": "address",
          "name": "_walletVMFactory",
          "type": "address"
        }
      ],
      "stateMutability": "nonpayable",
      "type": "constructor"
    },
    {
      "inputs": [
        {
          "internalType": "address",
          "name": "owner",
          "type": "address"
        }
      ],
      "name": "OwnableInvalidOwner",
      "type": "error"
    },
    {
      "inputs": [
        {
          "internalType": "address",
          "name": "account",
          "type": "address"
        }
      ],
      "name": "OwnableUnauthorizedAccount",
      "type": "error"
    },
    {
      "inputs": [],
      "name": "ReentrancyGuardReentrantCall",
      "type": "error"
    },
    {
      "anonymous": false,
      "inputs": [
        {
          "indexed": true,
          "internalType": "address",
          "name": "fromWallet",
          "type": "address"
        },
        {
          "indexed": true,
          "internalType": "address",
          "name": "toWallet",
          "type": "address"
        },
        {
          "indexed": false,
          "internalType": "uint256",
          "name": "amount",
          "type": "uint256"
        }
      ],
      "name": "CrossWalletTransaction",
      "type": "event"
    },
    {
      "anonymous": false,
      "inputs": [
        {
          "indexed": true,
          "internalType": "bytes32",
          "name": "dataHash",
          "type": "bytes32"
        },
        {
          "indexed": false,
          "internalType": "uint256",
          "name": "contributingWallets",
          "type": "uint256"
        },
        {
          "indexed": false,
          "internalType": "uint256",
          "name": "totalReward",
          "type": "uint256"
        }
      ],
      "name": "DataAggregated",
      "type": "event"
    },
    {
      "anonymous": false,
      "inputs": [
        {
          "indexed": true,
          "internalType": "address",
          "name": "user",
          "type": "address"
        },
        {
          "indexed": true,
          "internalType": "address",
          "name": "walletVM",
          "type": "address"
        },
        {
          "indexed": false,
          "internalType": "string",
          "name": "dappId",
          "type": "string"
        }
      ],
      "name": "EcosystemWalletConnected",
      "type": "event"
    },
    {
      "anonymous": false,
      "inputs": [
        {
          "indexed": true,
          "internalType": "address",
          "name": "previousOwner",
          "type": "address"
        },
        {
          "indexed": true,
          "internalType": "address",
          "name": "newOwner",
          "type": "address"
        }
      ],
      "name": "OwnershipTransferred",
      "type": "event"
    },
    {
      "inputs": [],
      "name": "aggregateNetworkData",
      "outputs": [
        {
          "internalType": "uint256",
          "name": "totalWallets",
          "type": "uint256"
        },
        {
          "internalType": "uint256",
          "name": "activeWallets",
          "type": "uint256"
        },
        {
          "internalType": "uint256",
          "name": "totalContributions",
          "type": "uint256"
        },
        {
          "internalType": "uint256",
          "name": "totalRewards",
          "type": "uint256"
        }
      ],
      "stateMutability": "view",
      "type": "function"
    },
    {
      "inputs": [
        {
          "internalType": "string",
          "name": "dappId",
          "type": "string"
        }
      ],
      "name": "autoConnect",
      "outputs": [
        {
          "internalType": "bool",
          "name": "canConnect",
          "type": "bool"
        },
        {
          "internalType": "bool",
          "name": "isWalletVM",
          "type": "bool"
        },
        {
          "internalType": "address",
          "name": "walletAddress",
          "type": "address"
        }
      ],
      "stateMutability": "view",
      "type": "function"
    },
    {
      "inputs": [
        {
          "internalType": "string",
          "name": "dappId",
          "type": "string"
        }
      ],
      "name": "connectToEcosystem",
      "outputs": [
        {
          "internalType": "bool",
          "name": "",
          "type": "bool"
        }
      ],
      "stateMutability": "nonpayable",
      "type": "function"
    },
    {
      "inputs": [
        {
          "internalType": "address",
          "name": "recipient",
          "type": "address"
        },
        {
          "internalType": "uint256",
          "name": "amount",
          "type": "uint256"
        },
        {
          "internalType": "bytes",
          "name": "data",
          "type": "bytes"
        }
      ],
      "name": "crossWalletTransfer",
      "outputs": [],
      "stateMutability": "payable",
      "type": "function"
    },
    {
      "inputs": [
        {
          "internalType": "address",
          "name": "",
          "type": "address"
        },
        {
          "internalType": "string",
          "name": "",
          "type": "string"
        }
      ],
      "name": "dappConnections",
      "outputs": [
        {
          "internalType": "bool",
          "name": "",
          "type": "bool"
        }
      ],
      "stateMutability": "view",
      "type": "function"
    },
    {
      "inputs": [
        {
          "internalType": "bytes32",
          "name": "",
          "type": "bytes32"
        }
      ],
      "name": "dataContributionRewards",
      "outputs": [
        {
          "internalType": "uint256",
          "name": "",
          "type": "uint256"
        }
      ],
      "stateMutability": "view",
      "type": "function"
    },
    {
      "inputs": [],
      "name": "ecosystemStats",
      "outputs": [
        {
          "internalType": "uint256",
          "name": "totalConnections",
          "type": "uint256"
        },
        {
          "internalType": "uint256",
          "name": "totalTransactions",
          "type": "uint256"
        },
        {
          "internalType": "uint256",
          "name": "totalDataContributions",
          "type": "uint256"
        },
        {
          "internalType": "uint256",
          "name": "activeUsers",
          "type": "uint256"
        }
      ],
      "stateMutability": "view",
      "type": "function"
    },
    {
      "inputs": [
        {
          "internalType": "address",
          "name": "target",
          "type": "address"
        },
        {
          "internalType": "uint256",
          "name": "value",
          "type": "uint256"
        },
        {
          "internalType": "bytes",
          "name": "data",
          "type": "bytes"
        },
        {
          "internalType": "string",
          "name": "dappId",
          "type": "string"
        }
      ],
      "name": "executeEcosystemTransaction",
      "outputs": [
        {
          "internalType": "bool",
          "name": "success",
          "type": "bool"
        },
        {
          "internalType": "bytes",
          "name": "result",
          "type": "bytes"
        }
      ],
      "stateMutability": "nonpayable",
      "type": "function"
    },
    {
      "inputs": [],
      "name": "getEcosystemStats",
      "outputs": [
        {
          "components": [
            {
              "internalType": "uint256",
              "name": "totalConnections",
              "type": "uint256"
            },
            {
              "internalType": "uint256",
              "name": "totalTransactions",
              "type": "uint256"
            },
            {
              "internalType": "uint256",
              "name": "totalDataContributions",
              "type": "uint256"
            },
            {
              "internalType": "uint256",
              "name": "activeUsers",
              "type": "uint256"
            }
          ],
          "internalType": "struct PaxeerEcosystemConnector.EcosystemStats",
          "name": "",
          "type": "tuple"
        }
      ],
      "stateMutability": "view",
      "type": "function"
    },
    {
      "inputs": [
        {
          "internalType": "address",
          "name": "user",
          "type": "address"
        }
      ],
      "name": "getUserWalletInfo",
      "outputs": [
        {
          "internalType": "bool",
          "name": "hasWalletVM",
          "type": "bool"
        },
        {
          "internalType": "address",
          "name": "walletAddress",
          "type": "address"
        },
        {
          "internalType": "uint256",
          "name": "walletId",
          "type": "uint256"
        },
        {
          "internalType": "uint256",
          "name": "contributionScore",
          "type": "uint256"
        },
        {
          "internalType": "string[]",
          "name": "activeFeatures",
          "type": "string[]"
        },
        {
          "internalType": "string[]",
          "name": "connectedDapps",
          "type": "string[]"
        }
      ],
      "stateMutability": "view",
      "type": "function"
    },
    {
      "inputs": [
        {
          "internalType": "address",
          "name": "user",
          "type": "address"
        },
        {
          "internalType": "string",
          "name": "dappId",
          "type": "string"
        }
      ],
      "name": "isConnectedToDapp",
      "outputs": [
        {
          "internalType": "bool",
          "name": "",
          "type": "bool"
        }
      ],
      "stateMutability": "view",
      "type": "function"
    },
    {
      "inputs": [],
      "name": "owner",
      "outputs": [
        {
          "internalType": "address",
          "name": "",
          "type": "address"
        }
      ],
      "stateMutability": "view",
      "type": "function"
    },
    {
      "inputs": [],
      "name": "renounceOwnership",
      "outputs": [],
      "stateMutability": "nonpayable",
      "type": "function"
    },
    {
      "inputs": [
        {
          "internalType": "address",
          "name": "newOwner",
          "type": "address"
        }
      ],
      "name": "transferOwnership",
      "outputs": [],
      "stateMutability": "nonpayable",
      "type": "function"
    },
    {
      "inputs": [
        {
          "internalType": "address",
          "name": "newWalletManager",
          "type": "address"
        }
      ],
      "name": "updateWalletManager",
      "outputs": [],
      "stateMutability": "nonpayable",
      "type": "function"
    },
    {
      "inputs": [
        {
          "internalType": "address",
          "name": "newWalletVMFactory",
          "type": "address"
        }
      ],
      "name": "updateWalletVMFactory",
      "outputs": [],
      "stateMutability": "nonpayable",
      "type": "function"
    },
    {
      "inputs": [],
      "name": "walletManager",
      "outputs": [
        {
          "internalType": "address",
          "name": "",
          "type": "address"
        }
      ],
      "stateMutability": "view",
      "type": "function"
    },
    {
      "inputs": [],
      "name": "walletVMFactory",
      "outputs": [
        {
          "internalType": "address",
          "name": "",
          "type": "address"
        }
      ],
      "stateMutability": "view",
      "type": "function"
    },
    {
      "stateMutability": "payable",
      "type": "receive"
    }
  ],
  "bytecode": "0x608060405234801561001057600080fd5b50604051612d54380380612d548339818101604052810190610032919061026c565b33600073ffffffffffffffffffffffffffffffffffffffff168173ffffffffffffffffffffffffffffffffffffffff16036100a55760006040517f1e4fbdf700000000000000000000000000000000000000000000000000000000815260040161009c91906102bb565b60405180910390fd5b6100b48161014560201b60201c565b506001808190555081600260006101000a81548173ffffffffffffffffffffffffffffffffffffffff021916908373ffffffffffffffffffffffffffffffffffffffff16021790555080600360006101000a81548173ffffffffffffffffffffffffffffffffffffffff021916908373ffffffffffffffffffffffffffffffffffffffff16021790555050506102d6565b60008060009054906101000a900473ffffffffffffffffffffffffffffffffffffffff169050816000806101000a81548173ffffffffffffffffffffffffffffffffffffffff021916908373ffffffffffffffffffffffffffffffffffffffff1602179055508173ffffffffffffffffffffffffffffffffffffffff168173ffffffffffffffffffffffffffffffffffffffff167f8be0079c531659141344cd1fd0a4f28419497f9722a3daafe3b4186f6b6457e060405160405180910390a35050565b600080fd5b600073ffffffffffffffffffffffffffffffffffffffff82169050919050565b60006102398261020e565b9050919050565b6102498161022e565b811461025457600080fd5b50565b60008151905061026681610240565b92915050565b6000806040838503121561028357610282610209565b5b600061029185828601610257565b92505060206102a285828601610257565b9150509250929050565b6102b58161022e565b82525050565b60006020820190506102d060008301846102ac565b92915050565b612a6f806102e56000396000f3fe60806040526004361061010d5760003560e01c8063957cdd1411610095578063b35ebe9a11610064578063b35ebe9a14610388578063bb8cc249146103c6578063cd12ad96146103f1578063d5dcbec61461042e578063f2fde38b1461045957610114565b8063957cdd14146102b05780639e599b36146102de578063a0aa41771461031b578063a263bd6b1461034957610114565b806364eae18f116100dc57806364eae18f146101c6578063715018a6146101ef5780638da5cb5b14610206578063900c564b14610231578063954cd2ac1461027357610114565b8063038858471461011957806309433eaa1461014257806316b270031461015e578063462797bb1461019b57610114565b3661011457005b600080fd5b34801561012557600080fd5b50610140600480360381019061013b91906119e3565b610482565b005b61015c60048036038101906101579190611b8c565b6104ce565b005b34801561016a57600080fd5b5061018560048036038101906101809190611c9c565b6108de565b6040516101929190611d13565b60405180910390f35b3480156101a757600080fd5b506101b0610951565b6040516101bd9190611d3d565b60405180910390f35b3480156101d257600080fd5b506101ed60048036038101906101e891906119e3565b610977565b005b3480156101fb57600080fd5b506102046109c3565b005b34801561021257600080fd5b5061021b6109d7565b6040516102289190611d3d565b60405180910390f35b34801561023d57600080fd5b50610258600480360381019061025391906119e3565b610a00565b60405161026a96959493929190611ea8565b60405180910390f35b34801561027f57600080fd5b5061029a60048036038101906102959190611c9c565b610d3e565b6040516102a79190611d13565b60405180910390f35b3480156102bc57600080fd5b506102c5610d83565b6040516102d59493929190611f17565b60405180910390f35b3480156102ea57600080fd5b5061030560048036038101906103009190611f5c565b610da1565b6040516103129190611d13565b60405180910390f35b34801561032757600080fd5b50610330610fbd565b6040516103409493929190611f17565b60405180910390f35b34801561035557600080fd5b50610370600480360381019061036b9190611f5c565b611062565b60405161037f93929190611fa5565b60405180910390f35b34801561039457600080fd5b506103af60048036038101906103aa9190611fdc565b61126d565b6040516103bd9291906120d0565b60405180910390f35b3480156103d257600080fd5b506103db6115a0565b6040516103e89190612164565b60405180910390f35b3480156103fd57600080fd5b50610418600480360381019061041391906121b5565b6115e2565b60405161042591906121e2565b60405180910390f35b34801561043a57600080fd5b506104436115fa565b6040516104509190611d3d565b60405180910390f35b34801561046557600080fd5b50610480600480360381019061047b91906119e3565b611620565b005b61048a6116a6565b80600260006101000a81548173ffffffffffffffffffffffffffffffffffffffff021916908373ffffffffffffffffffffffffffffffffffffffff16021790555050565b6104d661172d565b81341015610519576040517f08c379a00000000000000000000000000000000000000000000000000000000081526004016105109061225a565b60405180910390fd5b60003390506000600360009054906101000a900473ffffffffffffffffffffffffffffffffffffffff1673ffffffffffffffffffffffffffffffffffffffff166380dc8b06836040518263ffffffff1660e01b815260040161057b9190611d3d565b602060405180830381865afa158015610598573d6000803e3d6000fd5b505050506040513d601f19601f820116820180604052508101906105bc91906122a6565b90506000600360009054906101000a900473ffffffffffffffffffffffffffffffffffffffff1673ffffffffffffffffffffffffffffffffffffffff166380dc8b06876040518263ffffffff1660e01b815260040161061b9190611d3d565b602060405180830381865afa158015610638573d6000803e3d6000fd5b505050506040513d601f19601f8201168201806040525081019061065c91906122a6565b905080156107b9576000600360009054906101000a900473ffffffffffffffffffffffffffffffffffffffff1673ffffffffffffffffffffffffffffffffffffffff16639ad54793886040518263ffffffff1660e01b81526004016106c19190611d3d565b602060405180830381865afa1580156106de573d6000803e3d6000fd5b505050506040513d601f19601f8201168201806040525081019061070291906122e8565b905060008173ffffffffffffffffffffffffffffffffffffffff16878760405161072c9190612351565b60006040518083038185875af1925050503d8060008114610769576040519150601f19603f3d011682016040523d82523d6000602084013e61076e565b606091505b50509050806107b2576040517f08c379a00000000000000000000000000000000000000000000000000000000081526004016107a9906123b4565b60405180910390fd5b5050610869565b60008673ffffffffffffffffffffffffffffffffffffffff1686866040516107e19190612351565b60006040518083038185875af1925050503d806000811461081e576040519150601f19603f3d011682016040523d82523d6000602084013e610823565b606091505b5050905080610867576040517f08c379a000000000000000000000000000000000000000000000000000000000815260040161085e90612420565b60405180910390fd5b505b8573ffffffffffffffffffffffffffffffffffffffff168373ffffffffffffffffffffffffffffffffffffffff167fe5ba2998dbda6741511b7dc318ee0d02470533efe7cc12290a1feecd80ee8bae876040516108c691906121e2565b60405180910390a35050506108d9611773565b505050565b6000600860008473ffffffffffffffffffffffffffffffffffffffff1673ffffffffffffffffffffffffffffffffffffffff1681526020019081526020016000208260405161092d919061247c565b908152602001604051809103902060009054906101000a900460ff16905092915050565b600360009054906101000a900473ffffffffffffffffffffffffffffffffffffffff1681565b61097f6116a6565b80600360006101000a81548173ffffffffffffffffffffffffffffffffffffffff021916908373ffffffffffffffffffffffffffffffffffffffff16021790555050565b6109cb6116a6565b6109d5600061177c565b565b60008060009054906101000a900473ffffffffffffffffffffffffffffffffffffffff16905090565b600080600080606080600360009054906101000a900473ffffffffffffffffffffffffffffffffffffffff1673ffffffffffffffffffffffffffffffffffffffff166380dc8b06886040518263ffffffff1660e01b8152600401610a649190611d3d565b602060405180830381865afa158015610a81573d6000803e3d6000fd5b505050506040513d601f19601f82011682018060405250810190610aa591906122a6565b95508515610bdc57600360009054906101000a900473ffffffffffffffffffffffffffffffffffffffff1673ffffffffffffffffffffffffffffffffffffffff16639ad54793886040518263ffffffff1660e01b8152600401610b089190611d3d565b602060405180830381865afa158015610b25573d6000803e3d6000fd5b505050506040513d601f19601f82011682018060405250810190610b4991906122e8565b94508473ffffffffffffffffffffffffffffffffffffffff1663c352dae26040518163ffffffff1660e01b8152600401600060405180830381865afa158015610b96573d6000803e3d6000fd5b505050506040513d6000823e3d601f19601f82011682018060405250810190610bbf91906125fe565b909192939450909192509050809450819550829650505050610c39565b8694506000935060009250600067ffffffffffffffff811115610c0257610c01611a61565b5b604051908082528060200260200182016040528015610c3557816020015b6060815260200190600190039081610c205790505b5091505b600260009054906101000a900473ffffffffffffffffffffffffffffffffffffffff1673ffffffffffffffffffffffffffffffffffffffff1663a8c128ad886040518263ffffffff1660e01b8152600401610c949190611d3d565b600060405180830381865afa925050508015610cd357506040513d6000823e3d601f19601f82011682018060405250810190610cd091906126a7565b60015b610d2d57600067ffffffffffffffff811115610cf257610cf1611a61565b5b604051908082528060200260200182016040528015610d2557816020015b6060815260200190600190039081610d105790505b509050610d35565b809450505050505b91939550919395565b6008602052816000526040600020818051602081018201805184825260208301602085012081835280955050505050506000915091509054906101000a900460ff1681565b60048060000154908060010154908060020154908060030154905084565b6000610dab61172d565b60003390506000600360009054906101000a900473ffffffffffffffffffffffffffffffffffffffff1673ffffffffffffffffffffffffffffffffffffffff166380dc8b06836040518263ffffffff1660e01b8152600401610e0d9190611d3d565b602060405180830381865afa158015610e2a573d6000803e3d6000fd5b505050506040513d601f19601f82011682018060405250810190610e4e91906122a6565b90508015610f0b576000600360009054906101000a900473ffffffffffffffffffffffffffffffffffffffff1673ffffffffffffffffffffffffffffffffffffffff16639ad54793846040518263ffffffff1660e01b8152600401610eb39190611d3d565b602060405180830381865afa158015610ed0573d6000803e3d6000fd5b505050506040513d601f19601f82011682018060405250810190610ef491906122e8565b9050610f01838287611840565b9350505050610fb0565b600260009054906101000a900473ffffffffffffffffffffffffffffffffffffffff1673ffffffffffffffffffffffffffffffffffffffff166392b17b9e85846040518363ffffffff1660e01b8152600401610f68929190612763565b6020604051808303816000875af1158015610f87573d6000803e3d6000fd5b505050506040513d601f19601f82011682018060405250810190610fab91906122a6565b925050505b610fb8611773565b919050565b600080600080600360009054906101000a900473ffffffffffffffffffffffffffffffffffffffff1673ffffffffffffffffffffffffffffffffffffffff16634a662f486040518163ffffffff1660e01b8152600401608060405180830381865afa158015611030573d6000803e3d6000fd5b505050506040513d601f19601f820116820180604052508101906110549190612793565b935093509350935090919293565b600080600080339050600360009054906101000a900473ffffffffffffffffffffffffffffffffffffffff1673ffffffffffffffffffffffffffffffffffffffff166380dc8b06826040518263ffffffff1660e01b81526004016110c69190611d3d565b602060405180830381865afa1580156110e3573d6000803e3d6000fd5b505050506040513d601f19601f8201168201806040525081019061110791906122a6565b156111b757600360009054906101000a900473ffffffffffffffffffffffffffffffffffffffff1673ffffffffffffffffffffffffffffffffffffffff16639ad54793826040518263ffffffff1660e01b81526004016111679190611d3d565b602060405180830381865afa158015611184573d6000803e3d6000fd5b505050506040513d601f19601f820116820180604052508101906111a891906122e8565b91506001809350935050611266565b6000600260009054906101000a900473ffffffffffffffffffffffffffffffffffffffff1673ffffffffffffffffffffffffffffffffffffffff16634920f9e683886040518363ffffffff1660e01b81526004016112169291906127fa565b602060405180830381865afa158015611233573d6000803e3d6000fd5b505050506040513d601f19601f8201168201806040525081019061125791906122a6565b90508060008394509450945050505b9193909250565b6000606061127961172d565b6000339050600860008273ffffffffffffffffffffffffffffffffffffffff1673ffffffffffffffffffffffffffffffffffffffff168152602001908152602001600020846040516112cb919061247c565b908152602001604051809103902060009054906101000a900460ff16611326576040517f08c379a000000000000000000000000000000000000000000000000000000000815260040161131d90612876565b60405180910390fd5b600360009054906101000a900473ffffffffffffffffffffffffffffffffffffffff1673ffffffffffffffffffffffffffffffffffffffff166380dc8b06826040518263ffffffff1660e01b81526004016113819190611d3d565b602060405180830381865afa15801561139e573d6000803e3d6000fd5b505050506040513d601f19601f820116820180604052508101906113c291906122a6565b156114fa576000600360009054906101000a900473ffffffffffffffffffffffffffffffffffffffff1673ffffffffffffffffffffffffffffffffffffffff16639ad54793836040518263ffffffff1660e01b81526004016114249190611d3d565b602060405180830381865afa158015611441573d6000803e3d6000fd5b505050506040513d601f19601f8201168201806040525081019061146591906122e8565b90508073ffffffffffffffffffffffffffffffffffffffff16633f579f428989896040518463ffffffff1660e01b81526004016114a493929190612896565b6000604051808303816000875af11580156114c3573d6000803e3d6000fd5b505050506040513d6000823e3d601f19601f820116820180604052508101906114ec9190612944565b80945081955050505061156c565b8673ffffffffffffffffffffffffffffffffffffffff1686866040516115209190612351565b60006040518083038185875af1925050503d806000811461155d576040519150601f19603f3d011682016040523d82523d6000602084013e611562565b606091505b5080935081945050505b821561158e5760046001016000815480929190611588906129cf565b91905055505b50611597611773565b94509492505050565b6115a8611949565b6004604051806080016040529081600082015481526020016001820154815260200160028201548152602001600382015481525050905090565b60096020528060005260406000206000915090505481565b600260009054906101000a900473ffffffffffffffffffffffffffffffffffffffff1681565b6116286116a6565b600073ffffffffffffffffffffffffffffffffffffffff168173ffffffffffffffffffffffffffffffffffffffff160361169a5760006040517f1e4fbdf70000000000000000000000000000000000000000000000000000000081526004016116919190611d3d565b60405180910390fd5b6116a38161177c565b50565b6116ae611941565b73ffffffffffffffffffffffffffffffffffffffff166116cc6109d7565b73ffffffffffffffffffffffffffffffffffffffff161461172b576116ef611941565b6040517f118cdaa70000000000000000000000000000000000000000000000000000000081526004016117229190611d3d565b60405180910390fd5b565b600260015403611769576040517f3ee5aeb500000000000000000000000000000000000000000000000000000000815260040160405180910390fd5b6002600181905550565b60018081905550565b60008060009054906101000a900473ffffffffffffffffffffffffffffffffffffffff169050816000806101000a81548173ffffffffffffffffffffffffffffffffffffffff021916908373ffffffffffffffffffffffffffffffffffffffff1602179055508173ffffffffffffffffffffffffffffffffffffffff168173ffffffffffffffffffffffffffffffffffffffff167f8be0079c531659141344cd1fd0a4f28419497f9722a3daafe3b4186f6b6457e060405160405180910390a35050565b60006001600860008673ffffffffffffffffffffffffffffffffffffffff1673ffffffffffffffffffffffffffffffffffffffff16815260200190815260200160002083604051611891919061247c565b908152602001604051809103902060006101000a81548160ff021916908315150217905550600460000160008154809291906118cc906129cf565b91905055508273ffffffffffffffffffffffffffffffffffffffff168473ffffffffffffffffffffffffffffffffffffffff167f97977ce0518fef404f453697bc4f87f43decb56bf83f7b54854f897b3d326fb28460405161192e9190612a17565b60405180910390a3600190509392505050565b600033905090565b6040518060800160405280600081526020016000815260200160008152602001600081525090565b6000604051905090565b600080fd5b600080fd5b600073ffffffffffffffffffffffffffffffffffffffff82169050919050565b60006119b082611985565b9050919050565b6119c0816119a5565b81146119cb57600080fd5b50565b6000813590506119dd816119b7565b92915050565b6000602082840312156119f9576119f861197b565b5b6000611a07848285016119ce565b91505092915050565b6000819050919050565b611a2381611a10565b8114611a2e57600080fd5b50565b600081359050611a4081611a1a565b92915050565b600080fd5b600080fd5b6000601f19601f8301169050919050565b7f4e487b7100000000000000000000000000000000000000000000000000000000600052604160045260246000fd5b611a9982611a50565b810181811067ffffffffffffffff82111715611ab857611ab7611a61565b5b80604052505050565b6000611acb611971565b9050611ad78282611a90565b919050565b600067ffffffffffffffff821115611af757611af6611a61565b5b611b0082611a50565b9050602081019050919050565b82818337600083830152505050565b6000611b2f611b2a84611adc565b611ac1565b905082815260208101848484011115611b4b57611b4a611a4b565b5b611b56848285611b0d565b509392505050565b600082601f830112611b7357611b72611a46565b5b8135611b83848260208601611b1c565b91505092915050565b600080600060608486031215611ba557611ba461197b565b5b6000611bb3868287016119ce565b9350506020611bc486828701611a31565b925050604084013567ffffffffffffffff811115611be557611be4611980565b5b611bf186828701611b5e565b9150509250925092565b600067ffffffffffffffff821115611c1657611c15611a61565b5b611c1f82611a50565b9050602081019050919050565b6000611c3f611c3a84611bfb565b611ac1565b905082815260208101848484011115611c5b57611c5a611a4b565b5b611c66848285611b0d565b509392505050565b600082601f830112611c8357611c82611a46565b5b8135611c93848260208601611c2c565b91505092915050565b60008060408385031215611cb357611cb261197b565b5b6000611cc1858286016119ce565b925050602083013567ffffffffffffffff811115611ce257611ce1611980565b5b611cee85828601611c6e565b9150509250929050565b60008115159050919050565b611d0d81611cf8565b82525050565b6000602082019050611d286000830184611d04565b92915050565b611d37816119a5565b82525050565b6000602082019050611d526000830184611d2e565b92915050565b611d6181611a10565b82525050565b600081519050919050565b600082825260208201905092915050565b6000819050602082019050919050565b600081519050919050565b600082825260208201905092915050565b60005b83811015611dcd578082015181840152602081019050611db2565b60008484015250505050565b6000611de482611d93565b611dee8185611d9e565b9350611dfe818560208601611daf565b611e0781611a50565b840191505092915050565b6000611e1e8383611dd9565b905092915050565b6000602082019050919050565b6000611e3e82611d67565b611e488185611d72565b935083602082028501611e5a85611d83565b8060005b85811015611e965784840389528151611e778582611e12565b9450611e8283611e26565b925060208a01995050600181019050611e5e565b50829750879550505050505092915050565b600060c082019050611ebd6000830189611d04565b611eca6020830188611d2e565b611ed76040830187611d58565b611ee46060830186611d58565b8181036080830152611ef68185611e33565b905081810360a0830152611f0a8184611e33565b9050979650505050505050565b6000608082019050611f2c6000830187611d58565b611f396020830186611d58565b611f466040830185611d58565b611f536060830184611d58565b95945050505050565b600060208284031215611f7257611f7161197b565b5b600082013567ffffffffffffffff811115611f9057611f8f611980565b5b611f9c84828501611c6e565b91505092915050565b6000606082019050611fba6000830186611d04565b611fc76020830185611d04565b611fd46040830184611d2e565b949350505050565b60008060008060808587031215611ff657611ff561197b565b5b6000612004878288016119ce565b945050602061201587828801611a31565b935050604085013567ffffffffffffffff81111561203657612035611980565b5b61204287828801611b5e565b925050606085013567ffffffffffffffff81111561206357612062611980565b5b61206f87828801611c6e565b91505092959194509250565b600081519050919050565b600082825260208201905092915050565b60006120a28261207b565b6120ac8185612086565b93506120bc818560208601611daf565b6120c581611a50565b840191505092915050565b60006040820190506120e56000830185611d04565b81810360208301526120f78184612097565b90509392505050565b61210981611a10565b82525050565b6080820160008201516121256000850182612100565b5060208201516121386020850182612100565b50604082015161214b6040850182612100565b50606082015161215e6060850182612100565b50505050565b6000608082019050612179600083018461210f565b92915050565b6000819050919050565b6121928161217f565b811461219d57600080fd5b50565b6000813590506121af81612189565b92915050565b6000602082840312156121cb576121ca61197b565b5b60006121d9848285016121a0565b91505092915050565b60006020820190506121f76000830184611d58565b92915050565b600082825260208201905092915050565b7f496e73756666696369656e742076616c75650000000000000000000000000000600082015250565b60006122446012836121fd565b915061224f8261220e565b602082019050919050565b6000602082019050818103600083015261227381612237565b9050919050565b61228381611cf8565b811461228e57600080fd5b50565b6000815190506122a08161227a565b92915050565b6000602082840312156122bc576122bb61197b565b5b60006122ca84828501612291565b91505092915050565b6000815190506122e2816119b7565b92915050565b6000602082840312156122fe576122fd61197b565b5b600061230c848285016122d3565b91505092915050565b600081905092915050565b600061232b8261207b565b6123358185612315565b9350612345818560208601611daf565b80840191505092915050565b600061235d8284612320565b915081905092915050565b7f5472616e7366657220746f2057616c6c657420564d206661696c656400000000600082015250565b600061239e601c836121fd565b91506123a982612368565b602082019050919050565b600060208201905081810360008301526123cd81612391565b9050919050565b7f5472616e73666572206661696c65640000000000000000000000000000000000600082015250565b600061240a600f836121fd565b9150612415826123d4565b602082019050919050565b60006020820190508181036000830152612439816123fd565b9050919050565b600081905092915050565b600061245682611d93565b6124608185612440565b9350612470818560208601611daf565b80840191505092915050565b6000612488828461244b565b915081905092915050565b6000815190506124a281611a1a565b92915050565b600067ffffffffffffffff8211156124c3576124c2611a61565b5b602082029050602081019050919050565b600080fd5b60006124ec6124e784611bfb565b611ac1565b90508281526020810184848401111561250857612507611a4b565b5b612513848285611daf565b509392505050565b600082601f8301126125305761252f611a46565b5b81516125408482602086016124d9565b91505092915050565b600061255c612557846124a8565b611ac1565b9050808382526020820190506020840283018581111561257f5761257e6124d4565b5b835b818110156125c657805167ffffffffffffffff8111156125a4576125a3611a46565b5b8086016125b1898261251b565b85526020850194505050602081019050612581565b5050509392505050565b600082601f8301126125e5576125e4611a46565b5b81516125f5848260208601612549565b91505092915050565b60008060008060008060c0878903121561261b5761261a61197b565b5b600061262989828a016122d3565b965050602061263a89828a01612493565b955050604061264b89828a01612493565b945050606061265c89828a01612493565b935050608061266d89828a01612493565b92505060a087015167ffffffffffffffff81111561268e5761268d611980565b5b61269a89828a016125d0565b9150509295509295509295565b600080600080608085870312156126c1576126c061197b565b5b60006126cf87828801612493565b94505060206126e087828801612493565b93505060406126f187828801612291565b925050606085015167ffffffffffffffff81111561271257612711611980565b5b61271e878288016125d0565b91505092959194509250565b600061273582611d93565b61273f81856121fd565b935061274f818560208601611daf565b61275881611a50565b840191505092915050565b6000604082019050818103600083015261277d818561272a565b905061278c6020830184611d2e565b9392505050565b600080600080608085870312156127ad576127ac61197b565b5b60006127bb87828801612493565b94505060206127cc87828801612493565b93505060406127dd87828801612493565b92505060606127ee87828801612493565b91505092959194509250565b600060408201905061280f6000830185611d2e565b8181036020830152612821818461272a565b90509392505050565b7f4e6f7420636f6e6e656374656420746f20644170700000000000000000000000600082015250565b60006128606015836121fd565b915061286b8261282a565b602082019050919050565b6000602082019050818103600083015261288f81612853565b9050919050565b60006060820190506128ab6000830186611d2e565b6128b86020830185611d58565b81810360408301526128ca8184612097565b9050949350505050565b60006128e76128e284611adc565b611ac1565b90508281526020810184848401111561290357612902611a4b565b5b61290e848285611daf565b509392505050565b600082601f83011261292b5761292a611a46565b5b815161293b8482602086016128d4565b91505092915050565b6000806040838503121561295b5761295a61197b565b5b600061296985828601612291565b925050602083015167ffffffffffffffff81111561298a57612989611980565b5b61299685828601612916565b9150509250929050565b7f4e487b7100000000000000000000000000000000000000000000000000000000600052601160045260246000fd5b60006129da82611a10565b91507fffffffffffffffffffffffffffffffffffffffffffffffffffffffffffffffff8203612a0c57612a0b6129a0565b5b600182019050919050565b60006020820190508181036000830152612a31818461272a565b90509291505056fea264697066735822122068f06199ce1229235a53b1bfc4c43a5eb9c71b68d1e94150531a7d51f9da74d464736f6c634300081c0033",
  "linkReferences": {},
  "deployedLinkReferences": {}
}